{
  "contractName": "BWCToken",
  "abi": [
    {
      "constant": true,
      "inputs": [],
      "name": "totalRaisedToken",
      "outputs": [
        {
          "name": "",
          "type": "uint256"
        }
      ],
      "payable": false,
      "stateMutability": "view",
      "type": "function"
    },
    {
      "constant": true,
      "inputs": [],
      "name": "name",
      "outputs": [
        {
          "name": "",
          "type": "string"
        }
      ],
      "payable": false,
      "stateMutability": "view",
      "type": "function"
    },
    {
      "constant": true,
      "inputs": [],
      "name": "totalRaisedUSD",
      "outputs": [
        {
          "name": "",
          "type": "uint256"
        }
      ],
      "payable": false,
      "stateMutability": "view",
      "type": "function"
    },
    {
      "constant": true,
      "inputs": [],
      "name": "totalSupply",
      "outputs": [
        {
          "name": "",
          "type": "uint256"
        }
      ],
      "payable": false,
      "stateMutability": "view",
      "type": "function"
    },
    {
      "constant": true,
      "inputs": [],
      "name": "decimals",
      "outputs": [
        {
          "name": "",
          "type": "uint32"
        }
      ],
      "payable": false,
      "stateMutability": "view",
      "type": "function"
    },
    {
      "constant": true,
      "inputs": [],
      "name": "owner",
      "outputs": [
        {
          "name": "",
          "type": "address"
        }
      ],
      "payable": false,
      "stateMutability": "view",
      "type": "function"
    },
    {
      "constant": true,
      "inputs": [],
      "name": "softCap",
      "outputs": [
        {
          "name": "",
          "type": "uint256"
        }
      ],
      "payable": false,
      "stateMutability": "view",
      "type": "function"
    },
    {
      "constant": true,
      "inputs": [],
      "name": "symbol",
      "outputs": [
        {
          "name": "",
          "type": "string"
        }
      ],
      "payable": false,
      "stateMutability": "view",
      "type": "function"
    },
    {
      "constant": true,
      "inputs": [
        {
          "name": "",
          "type": "bytes32"
        }
      ],
      "name": "contributors",
      "outputs": [
        {
          "name": "contributor",
          "type": "address"
        },
        {
          "name": "amount",
          "type": "uint256"
        }
      ],
      "payable": false,
      "stateMutability": "view",
      "type": "function"
    },
    {
      "constant": false,
      "inputs": [
        {
          "name": "newOwner",
          "type": "address"
        }
      ],
      "name": "transferOwnership",
      "outputs": [],
      "payable": false,
      "stateMutability": "nonpayable",
      "type": "function"
    },
    {
      "constant": true,
      "inputs": [],
      "name": "hardCap",
      "outputs": [
        {
          "name": "",
          "type": "uint256"
        }
      ],
      "payable": false,
      "stateMutability": "view",
      "type": "function"
    },
    {
      "payable": true,
      "stateMutability": "payable",
      "type": "fallback"
    },
    {
      "anonymous": false,
      "inputs": [
        {
          "indexed": false,
          "name": "description",
          "type": "string"
        }
      ],
      "name": "LogNewOraclizeQuery",
      "type": "event"
    },
    {
      "constant": false,
      "inputs": [
        {
          "name": "state",
          "type": "uint8"
        }
      ],
      "name": "setState",
      "outputs": [],
      "payable": false,
      "stateMutability": "nonpayable",
      "type": "function"
    },
    {
      "constant": false,
      "inputs": [
        {
          "name": "myId",
          "type": "bytes32"
        },
        {
          "name": "result",
          "type": "string"
        }
      ],
      "name": "__callback",
      "outputs": [],
      "payable": false,
      "stateMutability": "nonpayable",
      "type": "function"
    },
    {
      "constant": false,
      "inputs": [
        {
          "name": "myid",
          "type": "bytes32"
        },
        {
          "name": "result",
          "type": "string"
        },
        {
          "name": "proof",
          "type": "bytes"
        }
      ],
      "name": "__callback",
      "outputs": [],
      "payable": false,
      "stateMutability": "nonpayable",
      "type": "function"
    }
  ],
  "bytecode": "0x6080604052600060065560006007556000600860006101000a81548160ff0219169083600281111561002d57fe5b021790555033600560006101000a81548173ffffffffffffffffffffffffffffffffffffffff021916908373ffffffffffffffffffffffffffffffffffffffff160217905550612241806100826000396000f3006080604052600436106100d0576000357c0100000000000000000000000000000000000000000000000000000000900463ffffffff1680630409c596146103e357806306fdde031461040e5780631252af751461049e57806318160ddd146104c957806327dc297e146104f4578063313ce5671461056b57806338bbfa50146105a257806356de96db1461065f5780638da5cb5b1461068f578063906a26e0146106e657806395d89b4114610711578063a0f0a90b146107a1578063f2fde38b14610819578063fb86a4041461085c575b60008060028111156100de57fe5b600860009054906101000a900460ff1660028111156100f957fe5b14151561010557600080fd5b3073ffffffffffffffffffffffffffffffffffffffff163161015b6040805190810160405280600381526020017f55524c0000000000000000000000000000000000000000000000000000000000815250610887565b111561021a577f621c2856e3b87f81235f8ac8a22bbb40a0142961960710d00b2b6c380902b57e60405180806020018281038252604b8152602001807f4f7261636c697a6520717565727920776173204e4f542073656e742c20706c6581526020017f6173652061646420736f6d652045544820746f20636f76657220666f7220746881526020017f652071756572792066656500000000000000000000000000000000000000000081525060600191505060405180910390a16103e0565b7f621c2856e3b87f81235f8ac8a22bbb40a0142961960710d00b2b6c380902b57e6040518080602001828103825260358152602001807f4f7261636c697a65207175657279207761732073656e742c207374616e64696e81526020017f6720627920666f722074686520616e737765722e2e000000000000000000000081525060400191505060405180910390a16103436040805190810160405280600381526020017f55524c0000000000000000000000000000000000000000000000000000000000815250606060405190810160405280603881526020017f6a736f6e2868747470733a2f2f6170692e676461782e636f6d2f70726f64756381526020017f74732f4554482d5553442f7469636b6572292e70726963650000000000000000815250610c57565b905060408051908101604052803373ffffffffffffffffffffffffffffffffffffffff16815260200134815250600a6000836000191660001916815260200190815260200160002060008201518160000160006101000a81548173ffffffffffffffffffffffffffffffffffffffff021916908373ffffffffffffffffffffffffffffffffffffffff160217905550602082015181600101559050505b50005b3480156103ef57600080fd5b506103f86111f9565b6040518082815260200191505060405180910390f35b34801561041a57600080fd5b506104236111ff565b6040518080602001828103825283818151815260200191508051906020019080838360005b83811015610463578082015181840152602081019050610448565b50505050905090810190601f1680156104905780820380516001836020036101000a031916815260200191505b509250505060405180910390f35b3480156104aa57600080fd5b506104b3611238565b6040518082815260200191505060405180910390f35b3480156104d557600080fd5b506104de61123e565b6040518082815260200191505060405180910390f35b34801561050057600080fd5b506105696004803603810190808035600019169060200190929190803590602001908201803590602001908080601f0160208091040260200160405190810160405280939291908181526020018383808284378201915050505050509192919290505050611252565b005b34801561057757600080fd5b506105806113c7565b604051808263ffffffff1663ffffffff16815260200191505060405180910390f35b3480156105ae57600080fd5b5061065d6004803603810190808035600019169060200190929190803590602001908201803590602001908080601f0160208091040260200160405190810160405280939291908181526020018383808284378201915050505050509192919290803590602001908201803590602001908080601f01602080910402602001604051908101604052809392919081815260200183838082843782019150505050505091929192905050506113cc565b005b34801561066b57600080fd5b5061068d600480360381019080803560ff1690602001909291905050506113d1565b005b34801561069b57600080fd5b506106a46114b9565b604051808273ffffffffffffffffffffffffffffffffffffffff1673ffffffffffffffffffffffffffffffffffffffff16815260200191505060405180910390f35b3480156106f257600080fd5b506106fb6114df565b6040518082815260200191505060405180910390f35b34801561071d57600080fd5b506107266114e5565b6040518080602001828103825283818151815260200191508051906020019080838360005b8381101561076657808201518184015260208101905061074b565b50505050905090810190601f1680156107935780820380516001836020036101000a031916815260200191505b509250505060405180910390f35b3480156107ad57600080fd5b506107d0600480360381019080803560001916906020019092919050505061151e565b604051808373ffffffffffffffffffffffffffffffffffffffff1673ffffffffffffffffffffffffffffffffffffffff1681526020018281526020019250505060405180910390f35b34801561082557600080fd5b5061085a600480360381019080803573ffffffffffffffffffffffffffffffffffffffff169060200190929190505050611562565b005b34801561086857600080fd5b5061087161163e565b6040518082815260200191505060405180910390f35b6000806000809054906101000a900473ffffffffffffffffffffffffffffffffffffffff1673ffffffffffffffffffffffffffffffffffffffff1614806108f7575060006108f56000809054906101000a900473ffffffffffffffffffffffffffffffffffffffff16611645565b145b15610908576109066000611650565b505b6000809054906101000a900473ffffffffffffffffffffffffffffffffffffffff1673ffffffffffffffffffffffffffffffffffffffff166338cc48316040518163ffffffff167c0100000000000000000000000000000000000000000000000000000000028152600401602060405180830381600087803b15801561098d57600080fd5b505af11580156109a1573d6000803e3d6000fd5b505050506040513d60208110156109b757600080fd5b810190808051906020019092919050505073ffffffffffffffffffffffffffffffffffffffff16600160009054906101000a900473ffffffffffffffffffffffffffffffffffffffff1673ffffffffffffffffffffffffffffffffffffffff16141515610b1f576000809054906101000a900473ffffffffffffffffffffffffffffffffffffffff1673ffffffffffffffffffffffffffffffffffffffff166338cc48316040518163ffffffff167c0100000000000000000000000000000000000000000000000000000000028152600401602060405180830381600087803b158015610aa357600080fd5b505af1158015610ab7573d6000803e3d6000fd5b505050506040513d6020811015610acd57600080fd5b8101908080519060200190929190505050600160006101000a81548173ffffffffffffffffffffffffffffffffffffffff021916908373ffffffffffffffffffffffffffffffffffffffff1602179055505b600160009054906101000a900473ffffffffffffffffffffffffffffffffffffffff1673ffffffffffffffffffffffffffffffffffffffff1663524f3889836040518263ffffffff167c01000000000000000000000000000000000000000000000000000000000281526004018080602001828103825283818151815260200191508051906020019080838360005b83811015610bc9578082015181840152602081019050610bae565b50505050905090810190601f168015610bf65780820380516001836020036101000a031916815260200191505b5092505050602060405180830381600087803b158015610c1557600080fd5b505af1158015610c29573d6000803e3d6000fd5b505050506040513d6020811015610c3f57600080fd5b81019080805190602001909291905050509050919050565b60008060008060009054906101000a900473ffffffffffffffffffffffffffffffffffffffff1673ffffffffffffffffffffffffffffffffffffffff161480610cc957506000610cc76000809054906101000a900473ffffffffffffffffffffffffffffffffffffffff16611645565b145b15610cda57610cd86000611650565b505b6000809054906101000a900473ffffffffffffffffffffffffffffffffffffffff1673ffffffffffffffffffffffffffffffffffffffff166338cc48316040518163ffffffff167c0100000000000000000000000000000000000000000000000000000000028152600401602060405180830381600087803b158015610d5f57600080fd5b505af1158015610d73573d6000803e3d6000fd5b505050506040513d6020811015610d8957600080fd5b810190808051906020019092919050505073ffffffffffffffffffffffffffffffffffffffff16600160009054906101000a900473ffffffffffffffffffffffffffffffffffffffff1673ffffffffffffffffffffffffffffffffffffffff16141515610ef1576000809054906101000a900473ffffffffffffffffffffffffffffffffffffffff1673ffffffffffffffffffffffffffffffffffffffff166338cc48316040518163ffffffff167c0100000000000000000000000000000000000000000000000000000000028152600401602060405180830381600087803b158015610e7557600080fd5b505af1158015610e89573d6000803e3d6000fd5b505050506040513d6020811015610e9f57600080fd5b8101908080519060200190929190505050600160006101000a81548173ffffffffffffffffffffffffffffffffffffffff021916908373ffffffffffffffffffffffffffffffffffffffff1602179055505b600160009054906101000a900473ffffffffffffffffffffffffffffffffffffffff1673ffffffffffffffffffffffffffffffffffffffff1663524f3889856040518263ffffffff167c01000000000000000000000000000000000000000000000000000000000281526004018080602001828103825283818151815260200191508051906020019080838360005b83811015610f9b578082015181840152602081019050610f80565b50505050905090810190601f168015610fc85780820380516001836020036101000a031916815260200191505b5092505050602060405180830381600087803b158015610fe757600080fd5b505af1158015610ffb573d6000803e3d6000fd5b505050506040513d602081101561101157600080fd5b8101908080519060200190929190505050905062030d403a02670de0b6b3a76400000181111561104757600060010291506111f2565b600160009054906101000a900473ffffffffffffffffffffffffffffffffffffffff1673ffffffffffffffffffffffffffffffffffffffff1663adf59f9982600087876040518563ffffffff167c0100000000000000000000000000000000000000000000000000000000028152600401808481526020018060200180602001838103835285818151815260200191508051906020019080838360005b838110156110ff5780820151818401526020810190506110e4565b50505050905090810190601f16801561112c5780820380516001836020036101000a031916815260200191505b50838103825284818151815260200191508051906020019080838360005b8381101561116557808201518184015260208101905061114a565b50505050905090810190601f1680156111925780820380516001836020036101000a031916815260200191505b50955050505050506020604051808303818588803b1580156111b357600080fd5b505af11580156111c7573d6000803e3d6000fd5b50505050506040513d60208110156111de57600080fd5b810190808051906020019092919050505091505b5092915050565b60075481565b6040805190810160405280600881526020017f425743546f6b656e00000000000000000000000000000000000000000000000081525081565b60065481565b601263ffffffff16600a0a633b9aca000281565b60008061125d611661565b73ffffffffffffffffffffffffffffffffffffffff163373ffffffffffffffffffffffffffffffffffffffff1614151561129657600080fd5b61129f836119bf565b600a6000866000191660001916815260200190815260200160002060010154029150601263ffffffff16600a0a60646112d7856119bf565b840202029050620186a08260065401111515156112f357600080fd5b601263ffffffff16600a0a633b9aca000281600754011115151561131657600080fd5b81600660008282540192505081905550806007600082825401925050819055508060096000600a6000886000191660001916815260200190815260200160002060000160009054906101000a900473ffffffffffffffffffffffffffffffffffffffff1673ffffffffffffffffffffffffffffffffffffffff1673ffffffffffffffffffffffffffffffffffffffff1681526020019081526020016000206000828254019250508190555050505050565b601281565b505050565b600560009054906101000a900473ffffffffffffffffffffffffffffffffffffffff1673ffffffffffffffffffffffffffffffffffffffff163373ffffffffffffffffffffffffffffffffffffffff1614151561142d57600080fd5b6000600281111561143a57fe5b81600281111561144657fe5b148061146857506001600281111561145a57fe5b81600281111561146657fe5b145b80611488575060028081111561147a57fe5b81600281111561148657fe5b145b151561149357600080fd5b80600860006101000a81548160ff021916908360028111156114b157fe5b021790555050565b600560009054906101000a900473ffffffffffffffffffffffffffffffffffffffff1681565b613a9881565b6040805190810160405280600381526020017f425743000000000000000000000000000000000000000000000000000000000081525081565b600a6020528060005260406000206000915090508060000160009054906101000a900473ffffffffffffffffffffffffffffffffffffffff16908060010154905082565b600560009054906101000a900473ffffffffffffffffffffffffffffffffffffffff1673ffffffffffffffffffffffffffffffffffffffff163373ffffffffffffffffffffffffffffffffffffffff161415156115be57600080fd5b600073ffffffffffffffffffffffffffffffffffffffff168173ffffffffffffffffffffffffffffffffffffffff16141515156115fa57600080fd5b80600560006101000a81548173ffffffffffffffffffffffffffffffffffffffff021916908373ffffffffffffffffffffffffffffffffffffffff16021790555050565b620186a081565b6000813b9050919050565b600061165a6119d3565b9050919050565b6000806000809054906101000a900473ffffffffffffffffffffffffffffffffffffffff1673ffffffffffffffffffffffffffffffffffffffff1614806116d1575060006116cf6000809054906101000a900473ffffffffffffffffffffffffffffffffffffffff16611645565b145b156116e2576116e06000611650565b505b6000809054906101000a900473ffffffffffffffffffffffffffffffffffffffff1673ffffffffffffffffffffffffffffffffffffffff166338cc48316040518163ffffffff167c0100000000000000000000000000000000000000000000000000000000028152600401602060405180830381600087803b15801561176757600080fd5b505af115801561177b573d6000803e3d6000fd5b505050506040513d602081101561179157600080fd5b810190808051906020019092919050505073ffffffffffffffffffffffffffffffffffffffff16600160009054906101000a900473ffffffffffffffffffffffffffffffffffffffff1673ffffffffffffffffffffffffffffffffffffffff161415156118f9576000809054906101000a900473ffffffffffffffffffffffffffffffffffffffff1673ffffffffffffffffffffffffffffffffffffffff166338cc48316040518163ffffffff167c0100000000000000000000000000000000000000000000000000000000028152600401602060405180830381600087803b15801561187d57600080fd5b505af1158015611891573d6000803e3d6000fd5b505050506040513d60208110156118a757600080fd5b8101908080519060200190929190505050600160006101000a81548173ffffffffffffffffffffffffffffffffffffffff021916908373ffffffffffffffffffffffffffffffffffffffff1602179055505b600160009054906101000a900473ffffffffffffffffffffffffffffffffffffffff1673ffffffffffffffffffffffffffffffffffffffff1663c281d19e6040518163ffffffff167c0100000000000000000000000000000000000000000000000000000000028152600401602060405180830381600087803b15801561197f57600080fd5b505af1158015611993573d6000803e3d6000fd5b505050506040513d60208110156119a957600080fd5b8101908080519060200190929190505050905090565b60006119cc826000611e62565b9050919050565b6000806119f3731d3b2638a7cc9f2cb3d298a3da7a90b67e5506ed611645565b1115611a9457731d3b2638a7cc9f2cb3d298a3da7a90b67e5506ed6000806101000a81548173ffffffffffffffffffffffffffffffffffffffff021916908373ffffffffffffffffffffffffffffffffffffffff160217905550611a8b6040805190810160405280600b81526020017f6574685f6d61696e6e6574000000000000000000000000000000000000000000815250612156565b60019050611e5f565b6000611ab373c03a2615d5efaf5f49f60b7bb6583eaec212fdf1611645565b1115611b545773c03a2615d5efaf5f49f60b7bb6583eaec212fdf16000806101000a81548173ffffffffffffffffffffffffffffffffffffffff021916908373ffffffffffffffffffffffffffffffffffffffff160217905550611b4b6040805190810160405280600c81526020017f6574685f726f707374656e330000000000000000000000000000000000000000815250612156565b60019050611e5f565b6000611b7373b7a07bcf2ba2f2703b24c0691b5278999c59ac7e611645565b1115611c145773b7a07bcf2ba2f2703b24c0691b5278999c59ac7e6000806101000a81548173ffffffffffffffffffffffffffffffffffffffff021916908373ffffffffffffffffffffffffffffffffffffffff160217905550611c0b6040805190810160405280600981526020017f6574685f6b6f76616e0000000000000000000000000000000000000000000000815250612156565b60019050611e5f565b6000611c3373146500cfd35b22e4a392fe0adc06de1a1368ed48611645565b1115611cd45773146500cfd35b22e4a392fe0adc06de1a1368ed486000806101000a81548173ffffffffffffffffffffffffffffffffffffffff021916908373ffffffffffffffffffffffffffffffffffffffff160217905550611ccb6040805190810160405280600b81526020017f6574685f72696e6b656279000000000000000000000000000000000000000000815250612156565b60019050611e5f565b6000611cf3736f485c8bf6fc43ea212e93bbf8ce046c7f1cb475611645565b1115611d5657736f485c8bf6fc43ea212e93bbf8ce046c7f1cb4756000806101000a81548173ffffffffffffffffffffffffffffffffffffffff021916908373ffffffffffffffffffffffffffffffffffffffff16021790555060019050611e5f565b6000611d757320e12a1f859b3feae5fb2a0a32c18f5a65555bbf611645565b1115611dd8577320e12a1f859b3feae5fb2a0a32c18f5a65555bbf6000806101000a81548173ffffffffffffffffffffffffffffffffffffffff021916908373ffffffffffffffffffffffffffffffffffffffff16021790555060019050611e5f565b6000611df77351efaf4c8b3c9afbd5ab9f4bbc82784ab6ef8faa611645565b1115611e5a577351efaf4c8b3c9afbd5ab9f4bbc82784ab6ef8faa6000806101000a81548173ffffffffffffffffffffffffffffffffffffffff021916908373ffffffffffffffffffffffffffffffffffffffff16021790555060019050611e5f565b600090505b90565b6000606060008060008693506000925060009150600090505b83518110156121375760307f0100000000000000000000000000000000000000000000000000000000000000028482815181101515611eb657fe5b9060200101517f010000000000000000000000000000000000000000000000000000000000000090047f0100000000000000000000000000000000000000000000000000000000000000027effffffffffffffffffffffffffffffffffffffffffffffffffffffffffffff191610158015611fce575060397f0100000000000000000000000000000000000000000000000000000000000000028482815181101515611f5e57fe5b9060200101517f010000000000000000000000000000000000000000000000000000000000000090047f0100000000000000000000000000000000000000000000000000000000000000027effffffffffffffffffffffffffffffffffffffffffffffffffffffffffffff191611155b1561207f578115611ff1576000861415611fe757612137565b8580600190039650505b600a830292506030848281518110151561200757fe5b9060200101517f010000000000000000000000000000000000000000000000000000000000000090047f0100000000000000000000000000000000000000000000000000000000000000027f01000000000000000000000000000000000000000000000000000000000000009004038301925061212a565b602e7f01000000000000000000000000000000000000000000000000000000000000000284828151811015156120b157fe5b9060200101517f010000000000000000000000000000000000000000000000000000000000000090047f0100000000000000000000000000000000000000000000000000000000000000027effffffffffffffffffffffffffffffffffffffffffffffffffffffffffffff1916141561212957600191505b5b8080600101915050611e7b565b60008611156121495785600a0a830292505b8294505050505092915050565b806002908051906020019061216c929190612170565b5050565b828054600181600116156101000203166002900490600052602060002090601f016020900481019282601f106121b157805160ff19168380011785556121df565b828001600101855582156121df579182015b828111156121de5782518255916020019190600101906121c3565b5b5090506121ec91906121f0565b5090565b61221291905b8082111561220e5760008160009055506001016121f6565b5090565b905600a165627a7a723058201e083ce646e576157593f5bb574458aee487101e4290377ebb8e80fdf6f1b1d90029",
  "source": "pragma solidity ^0.4.23;\n\nimport \"./OraclizeAPI.sol\";\n\n/**\n * @title Ownable\n * @dev The Ownable contract has an owner address, and provides basic authorization control\n * functions, this simplifies the implementation of \"user permissions\".\n */\ncontract Ownable {\n\n  address public owner;\n\n  /**\n  * @dev The Ownable constructor sets the original `owner` of the contract to the sender\n  * account.\n  */\n  constructor() public {\n    owner = msg.sender;\n  }\n\n  /**\n  * @dev Throws if called by any account other than the owner.\n  */\n  modifier onlyOwner() {\n    require(msg.sender == owner);\n    _;\n  }\n\n  /**\n  * @dev Allows the current owner to transfer control of the contract to a newOwner.\n  * @param newOwner The address to transfer ownership to.\n  */\n  function transferOwnership(address newOwner) onlyOwner public {\n    require(newOwner != address(0));\n    owner = newOwner;\n  }\n\n}\n\ncontract BWCToken is usingOraclize, Ownable {\n\n  struct Contributor {\n    address contributor;\n    uint256 amount;\n  }\n\n  enum State {\n    Sale,\n    Paused,\n    Finished\n  }\n\n  string public constant name = \"BWCToken\";\n  string public constant symbol = \"BWC\";\n  uint32 public constant decimals = 18;\n\n  uint256 public constant totalSupply = 1000000000 * (10 ** uint256(decimals));\n  uint256 public constant softCap = 15000;\n  uint256 public constant hardCap = 100000;\n\n  uint256 public totalRaisedUSD = 0;\n  uint256 public totalRaisedToken = 0;\n\n  State currentState = State.Sale;\n  mapping(address => uint256) balances;\n  mapping(bytes32 => Contributor) public contributors;\n\n  event LogNewOraclizeQuery(string description);\n\n  function setState(State state) public onlyOwner {\n    require(state == State.Sale || state == State.Paused || state == State.Finished);\n\n    currentState = state;\n  }\n\n  function __callback(bytes32 myId, string result) public {\n    if (msg.sender != oraclize_cbAddress()) revert();\n\n    uint256 amountUSD = contributors[myId].amount * parseInt(result);\n    uint256 amountToken = amountUSD * parseInt(result) * 100 * (10 ** uint256(decimals));\n\n    require(totalRaisedUSD + amountUSD <= hardCap);\n    require(totalRaisedToken + amountToken <= totalSupply);\n\n    totalRaisedUSD += amountUSD;\n    totalRaisedToken += amountToken;\n\n    balances[contributors[myId].contributor] += amountToken;\n  }\n\n  function () public payable {\n    require(currentState == State.Sale);\n\n    if (oraclize_getPrice(\"URL\") > address(this).balance) {\n      emit LogNewOraclizeQuery(\"Oraclize query was NOT sent, please add some ETH to cover for the query fee\");\n    } else {\n      emit LogNewOraclizeQuery(\"Oraclize query was sent, standing by for the answer..\");\n      bytes32 queryId = oraclize_query(\"URL\", \"json(https://api.gdax.com/products/ETH-USD/ticker).price\");\n      contributors[queryId] = Contributor(msg.sender, msg.value);\n    }\n  }\n\n}",
  "sourcePath": "/Volumes/Project/BWCToken/contracts/BWCToken.sol",
  "compiler": {
    "name": "solc",
    "version": "0.4.24+commit.e67f0147.Emscripten.clang"
  },
  "schemaVersion": "2.0.1",
  "updatedAt": "2018-08-19T21:16:06.435Z"
}